{
  "abi": [
    {
      "inputs": [],
      "stateMutability": "nonpayable",
      "type": "constructor"
    },
    {
      "inputs": [],
      "name": "enter",
      "outputs": [],
      "stateMutability": "payable",
      "type": "function"
    },
    {
      "inputs": [],
      "name": "getPlayers",
      "outputs": [
        {
          "internalType": "address[]",
          "name": "",
          "type": "address[]"
        }
      ],
      "stateMutability": "view",
      "type": "function"
    },
    {
      "inputs": [],
      "name": "manager",
      "outputs": [
        {
          "internalType": "address",
          "name": "",
          "type": "address"
        }
      ],
      "stateMutability": "view",
      "type": "function"
    },
    {
      "inputs": [],
      "name": "pickWinner",
      "outputs": [],
      "stateMutability": "nonpayable",
      "type": "function"
    },
    {
      "inputs": [
        {
          "internalType": "uint256",
          "name": "",
          "type": "uint256"
        }
      ],
      "name": "players",
      "outputs": [
        {
          "internalType": "address",
          "name": "",
          "type": "address"
        }
      ],
      "stateMutability": "view",
      "type": "function"
    }
  ],
  "devdoc": {
    "kind": "dev",
    "methods": {},
    "version": 1
  },
  "evm": {
    "assembly": "    /* \"Lottery.sol\":57:1054  contract Lottery {... */\n  mstore(0x40, 0x80)\n    /* \"Lottery.sol\":291:342  constructor() {... */\n  callvalue\n  dup1\n  iszero\n  tag_1\n  jumpi\n  0x00\n  dup1\n  revert\ntag_1:\n  pop\n    /* \"Lottery.sol\":325:335  msg.sender */\n  caller\n    /* \"Lottery.sol\":315:322  manager */\n  0x00\n  dup1\n    /* \"Lottery.sol\":315:335  manager = msg.sender */\n  0x0100\n  exp\n  dup2\n  sload\n  dup2\n  0xffffffffffffffffffffffffffffffffffffffff\n  mul\n  not\n  and\n  swap1\n  dup4\n  0xffffffffffffffffffffffffffffffffffffffff\n  and\n  mul\n  or\n  swap1\n  sstore\n  pop\n    /* \"Lottery.sol\":57:1054  contract Lottery {... */\n  dataSize(sub_0)\n  dup1\n  dataOffset(sub_0)\n  0x00\n  codecopy\n  0x00\n  return\nstop\n\nsub_0: assembly {\n        /* \"Lottery.sol\":57:1054  contract Lottery {... */\n      mstore(0x40, 0x80)\n      jumpi(tag_1, lt(calldatasize, 0x04))\n      shr(0xe0, calldataload(0x00))\n      dup1\n      0x481c6a75\n      eq\n      tag_2\n      jumpi\n      dup1\n      0x5d495aea\n      eq\n      tag_3\n      jumpi\n      dup1\n      0x8b5b9ccc\n      eq\n      tag_4\n      jumpi\n      dup1\n      0xe97dcb62\n      eq\n      tag_5\n      jumpi\n      dup1\n      0xf71d96cb\n      eq\n      tag_6\n      jumpi\n    tag_1:\n      0x00\n      dup1\n      revert\n        /* \"Lottery.sol\":232:254  address public manager */\n    tag_2:\n      callvalue\n      dup1\n      iszero\n      tag_7\n      jumpi\n      0x00\n      dup1\n      revert\n    tag_7:\n      pop\n      tag_8\n      tag_9\n      jump\t// in\n    tag_8:\n      mload(0x40)\n      tag_10\n      swap2\n      swap1\n      tag_11\n      jump\t// in\n    tag_10:\n      mload(0x40)\n      dup1\n      swap2\n      sub\n      swap1\n      return\n        /* \"Lottery.sol\":652:848  function pickWinner() public restricted {... */\n    tag_3:\n      callvalue\n      dup1\n      iszero\n      tag_12\n      jumpi\n      0x00\n      dup1\n      revert\n    tag_12:\n      pop\n      tag_13\n      tag_14\n      jump\t// in\n    tag_13:\n      stop\n        /* \"Lottery.sol\":960:1052  function getPlayers() public view returns (address[] memory) {... */\n    tag_4:\n      callvalue\n      dup1\n      iszero\n      tag_15\n      jumpi\n      0x00\n      dup1\n      revert\n    tag_15:\n      pop\n      tag_16\n      tag_17\n      jump\t// in\n    tag_16:\n      mload(0x40)\n      tag_18\n      swap2\n      swap1\n      tag_19\n      jump\t// in\n    tag_18:\n      mload(0x40)\n      dup1\n      swap2\n      sub\n      swap1\n      return\n        /* \"Lottery.sol\":352:493  function enter() public payable {... */\n    tag_5:\n      tag_20\n      tag_21\n      jump\t// in\n    tag_20:\n      stop\n        /* \"Lottery.sol\":260:284  address[] public players */\n    tag_6:\n      callvalue\n      dup1\n      iszero\n      tag_22\n      jumpi\n      0x00\n      dup1\n      revert\n    tag_22:\n      pop\n      tag_23\n      0x04\n      dup1\n      calldatasize\n      sub\n      dup2\n      add\n      swap1\n      tag_24\n      swap2\n      swap1\n      tag_25\n      jump\t// in\n    tag_24:\n      tag_26\n      jump\t// in\n    tag_23:\n      mload(0x40)\n      tag_27\n      swap2\n      swap1\n      tag_11\n      jump\t// in\n    tag_27:\n      mload(0x40)\n      dup1\n      swap2\n      sub\n      swap1\n      return\n        /* \"Lottery.sol\":232:254  address public manager */\n    tag_9:\n      0x00\n      dup1\n      sload\n      swap1\n      0x0100\n      exp\n      swap1\n      div\n      0xffffffffffffffffffffffffffffffffffffffff\n      and\n      dup2\n      jump\t// out\n        /* \"Lottery.sol\":652:848  function pickWinner() public restricted {... */\n    tag_14:\n        /* \"Lottery.sol\":908:915  manager */\n      0x00\n      dup1\n      sload\n      swap1\n      0x0100\n      exp\n      swap1\n      div\n      0xffffffffffffffffffffffffffffffffffffffff\n      and\n        /* \"Lottery.sol\":894:915  msg.sender == manager */\n      0xffffffffffffffffffffffffffffffffffffffff\n      and\n        /* \"Lottery.sol\":894:904  msg.sender */\n      caller\n        /* \"Lottery.sol\":894:915  msg.sender == manager */\n      0xffffffffffffffffffffffffffffffffffffffff\n      and\n      eq\n        /* \"Lottery.sol\":917:935  RESTRICTED_MESSAGE */\n      mload(0x40)\n      dup1\n      0x40\n      add\n      0x40\n      mstore\n      dup1\n      0x13\n      dup2\n      mstore\n      0x20\n      add\n      0x556e617574686f72697a65642041636365737300000000000000000000000000\n      dup2\n      mstore\n      pop\n        /* \"Lottery.sol\":886:936  require(msg.sender == manager, RESTRICTED_MESSAGE) */\n      swap1\n      tag_29\n      jumpi\n      mload(0x40)\n      0x08c379a000000000000000000000000000000000000000000000000000000000\n      dup2\n      mstore\n      0x04\n      add\n      tag_30\n      swap2\n      swap1\n      tag_31\n      jump\t// in\n    tag_30:\n      mload(0x40)\n      dup1\n      swap2\n      sub\n      swap1\n      revert\n    tag_29:\n      pop\n        /* \"Lottery.sol\":702:712  uint index */\n      0x00\n        /* \"Lottery.sol\":726:733  players */\n      0x01\n        /* \"Lottery.sol\":726:740  players.length */\n      dup1\n      sload\n      swap1\n      pop\n        /* \"Lottery.sol\":715:723  random() */\n      tag_33\n        /* \"Lottery.sol\":715:721  random */\n      tag_34\n        /* \"Lottery.sol\":715:723  random() */\n      jump\t// in\n    tag_33:\n        /* \"Lottery.sol\":715:740  random() % players.length */\n      tag_35\n      swap2\n      swap1\n      tag_36\n      jump\t// in\n    tag_35:\n        /* \"Lottery.sol\":702:740  uint index = random() % players.length */\n      swap1\n      pop\n        /* \"Lottery.sol\":758:765  players */\n      0x01\n        /* \"Lottery.sol\":766:771  index */\n      dup2\n        /* \"Lottery.sol\":758:772  players[index] */\n      dup2\n      sload\n      dup2\n      lt\n      tag_37\n      jumpi\n      mstore(0x00, 0x4e487b7100000000000000000000000000000000000000000000000000000000)\n      mstore(0x04, 0x32)\n      revert(0x00, 0x24)\n    tag_37:\n      swap1\n      0x00\n      mstore\n      keccak256(0x00, 0x20)\n      add\n      0x00\n      swap1\n      sload\n      swap1\n      0x0100\n      exp\n      swap1\n      div\n      0xffffffffffffffffffffffffffffffffffffffff\n      and\n        /* \"Lottery.sol\":750:782  payable(players[index]).transfer */\n      0xffffffffffffffffffffffffffffffffffffffff\n      and\n        /* \"Lottery.sol\":750:805  payable(players[index]).transfer(address(this).balance) */\n      0x08fc\n        /* \"Lottery.sol\":783:804  address(this).balance */\n      selfbalance\n        /* \"Lottery.sol\":750:805  payable(players[index]).transfer(address(this).balance) */\n      swap1\n      dup2\n      iszero\n      mul\n      swap1\n      mload(0x40)\n      0x00\n      mload(0x40)\n      dup1\n      dup4\n      sub\n      dup2\n      dup6\n      dup9\n      dup9\n      call\n      swap4\n      pop\n      pop\n      pop\n      pop\n      iszero\n      dup1\n      iszero\n      tag_40\n      jumpi\n      returndatasize\n      0x00\n      dup1\n      returndatacopy\n      revert(0x00, returndatasize)\n    tag_40:\n      pop\n        /* \"Lottery.sol\":839:840  0 */\n      0x00\n        /* \"Lottery.sol\":825:841  new address[](0) */\n      0xffffffffffffffff\n      dup2\n      gt\n      iszero\n      tag_41\n      jumpi\n      mstore(0x00, 0x4e487b7100000000000000000000000000000000000000000000000000000000)\n      mstore(0x04, 0x41)\n      revert(0x00, 0x24)\n    tag_41:\n      mload(0x40)\n      swap1\n      dup1\n      dup3\n      mstore\n      dup1\n      0x20\n      mul\n      0x20\n      add\n      dup3\n      add\n      0x40\n      mstore\n      dup1\n      iszero\n      tag_42\n      jumpi\n      dup2\n      0x20\n      add\n      0x20\n      dup3\n      mul\n      dup1\n      calldatasize\n      dup4\n      calldatacopy\n      dup1\n      dup3\n      add\n      swap2\n      pop\n      pop\n      swap1\n      pop\n    tag_42:\n      pop\n        /* \"Lottery.sol\":815:822  players */\n      0x01\n        /* \"Lottery.sol\":815:841  players = new address[](0) */\n      swap1\n      dup1\n      mload\n      swap1\n      0x20\n      add\n      swap1\n      tag_43\n      swap3\n      swap2\n      swap1\n      tag_44\n      jump\t// in\n    tag_43:\n      pop\n        /* \"Lottery.sol\":946:947  _ */\n      pop\n        /* \"Lottery.sol\":652:848  function pickWinner() public restricted {... */\n      jump\t// out\n        /* \"Lottery.sol\":960:1052  function getPlayers() public view returns (address[] memory) {... */\n    tag_17:\n        /* \"Lottery.sol\":1003:1019  address[] memory */\n      0x60\n        /* \"Lottery.sol\":1038:1045  players */\n      0x01\n        /* \"Lottery.sol\":1031:1045  return players */\n      dup1\n      sload\n      dup1\n      0x20\n      mul\n      0x20\n      add\n      mload(0x40)\n      swap1\n      dup2\n      add\n      0x40\n      mstore\n      dup1\n      swap3\n      swap2\n      swap1\n      dup2\n      dup2\n      mstore\n      0x20\n      add\n      dup3\n      dup1\n      sload\n      dup1\n      iszero\n      tag_46\n      jumpi\n      0x20\n      mul\n      dup3\n      add\n      swap2\n      swap1\n      0x00\n      mstore\n      keccak256(0x00, 0x20)\n      swap1\n    tag_47:\n      dup2\n      0x00\n      swap1\n      sload\n      swap1\n      0x0100\n      exp\n      swap1\n      div\n      0xffffffffffffffffffffffffffffffffffffffff\n      and\n      0xffffffffffffffffffffffffffffffffffffffff\n      and\n      dup2\n      mstore\n      0x20\n      add\n      swap1\n      0x01\n      add\n      swap1\n      dup1\n      dup4\n      gt\n      tag_47\n      jumpi\n    tag_46:\n      pop\n      pop\n      pop\n      pop\n      pop\n      swap1\n      pop\n        /* \"Lottery.sol\":960:1052  function getPlayers() public view returns (address[] memory) {... */\n      swap1\n      jump\t// out\n        /* \"Lottery.sol\":352:493  function enter() public payable {... */\n    tag_21:\n        /* \"Lottery.sol\":414:423  .01 ether */\n      0x2386f26fc10000\n        /* \"Lottery.sol\":402:411  msg.value */\n      callvalue\n        /* \"Lottery.sol\":402:423  msg.value > .01 ether */\n      gt\n        /* \"Lottery.sol\":425:450  INSUFFICIENT_FUND_MESSAGE */\n      mload(0x40)\n      dup1\n      0x40\n      add\n      0x40\n      mstore\n      dup1\n      0x11\n      dup2\n      mstore\n      0x20\n      add\n      0x496e73756666696369656e742046756e64000000000000000000000000000000\n      dup2\n      mstore\n      pop\n        /* \"Lottery.sol\":394:451  require(msg.value > .01 ether, INSUFFICIENT_FUND_MESSAGE) */\n      swap1\n      tag_49\n      jumpi\n      mload(0x40)\n      0x08c379a000000000000000000000000000000000000000000000000000000000\n      dup2\n      mstore\n      0x04\n      add\n      tag_50\n      swap2\n      swap1\n      tag_31\n      jump\t// in\n    tag_50:\n      mload(0x40)\n      dup1\n      swap2\n      sub\n      swap1\n      revert\n    tag_49:\n      pop\n        /* \"Lottery.sol\":462:469  players */\n      0x01\n        /* \"Lottery.sol\":475:485  msg.sender */\n      caller\n        /* \"Lottery.sol\":462:486  players.push(msg.sender) */\n      swap1\n      dup1\n      0x01\n      dup2\n      sload\n      add\n      dup1\n      dup3\n      sstore\n      dup1\n      swap2\n      pop\n      pop\n      0x01\n      swap1\n      sub\n      swap1\n      0x00\n      mstore\n      keccak256(0x00, 0x20)\n      add\n      0x00\n      swap1\n      swap2\n      swap1\n      swap2\n      swap1\n      swap2\n      0x0100\n      exp\n      dup2\n      sload\n      dup2\n      0xffffffffffffffffffffffffffffffffffffffff\n      mul\n      not\n      and\n      swap1\n      dup4\n      0xffffffffffffffffffffffffffffffffffffffff\n      and\n      mul\n      or\n      swap1\n      sstore\n      pop\n        /* \"Lottery.sol\":352:493  function enter() public payable {... */\n      jump\t// out\n        /* \"Lottery.sol\":260:284  address[] public players */\n    tag_26:\n      0x01\n      dup2\n      dup2\n      sload\n      dup2\n      lt\n      tag_52\n      jumpi\n      0x00\n      dup1\n      revert\n    tag_52:\n      swap1\n      0x00\n      mstore\n      keccak256(0x00, 0x20)\n      add\n      0x00\n      swap2\n      pop\n      sload\n      swap1\n      0x0100\n      exp\n      swap1\n      div\n      0xffffffffffffffffffffffffffffffffffffffff\n      and\n      dup2\n      jump\t// out\n        /* \"Lottery.sol\":499:646  function random() private view returns (uint) {... */\n    tag_34:\n        /* \"Lottery.sol\":539:543  uint */\n      0x00\n        /* \"Lottery.sol\":594:610  block.difficulty */\n      difficulty\n        /* \"Lottery.sol\":612:627  block.timestamp */\n      timestamp\n        /* \"Lottery.sol\":629:636  players */\n      0x01\n        /* \"Lottery.sol\":577:637  abi.encodePacked(block.difficulty, block.timestamp, players) */\n      add(0x20, mload(0x40))\n      tag_55\n      swap4\n      swap3\n      swap2\n      swap1\n      tag_56\n      jump\t// in\n    tag_55:\n      mload(0x40)\n      0x20\n      dup2\n      dup4\n      sub\n      sub\n      dup2\n      mstore\n      swap1\n      0x40\n      mstore\n        /* \"Lottery.sol\":567:638  keccak256(abi.encodePacked(block.difficulty, block.timestamp, players)) */\n      dup1\n      mload\n      swap1\n      0x20\n      add\n      keccak256\n        /* \"Lottery.sol\":562:639  uint(keccak256(abi.encodePacked(block.difficulty, block.timestamp, players))) */\n      0x00\n      shr\n        /* \"Lottery.sol\":555:639  return uint(keccak256(abi.encodePacked(block.difficulty, block.timestamp, players))) */\n      swap1\n      pop\n        /* \"Lottery.sol\":499:646  function random() private view returns (uint) {... */\n      swap1\n      jump\t// out\n    tag_44:\n      dup3\n      dup1\n      sload\n      dup3\n      dup3\n      sstore\n      swap1\n      0x00\n      mstore\n      keccak256(0x00, 0x20)\n      swap1\n      dup2\n      add\n      swap3\n      dup3\n      iszero\n      tag_57\n      jumpi\n      swap2\n      0x20\n      mul\n      dup3\n      add\n    tag_58:\n      dup3\n      dup2\n      gt\n      iszero\n      tag_59\n      jumpi\n      dup3\n      mload\n      dup3\n      exp(0x0100, 0x00)\n      dup2\n      sload\n      dup2\n      0xffffffffffffffffffffffffffffffffffffffff\n      mul\n      not\n      and\n      swap1\n      dup4\n      0xffffffffffffffffffffffffffffffffffffffff\n      and\n      mul\n      or\n      swap1\n      sstore\n      pop\n      swap2\n      0x20\n      add\n      swap2\n      swap1\n      0x01\n      add\n      swap1\n      jump(tag_58)\n    tag_59:\n    tag_57:\n      pop\n      swap1\n      pop\n      tag_60\n      swap2\n      swap1\n      tag_61\n      jump\t// in\n    tag_60:\n      pop\n      swap1\n      jump\t// out\n    tag_61:\n    tag_62:\n      dup1\n      dup3\n      gt\n      iszero\n      tag_63\n      jumpi\n      0x00\n      dup2\n      0x00\n      swap1\n      sstore\n      pop\n      0x01\n      add\n      jump(tag_62)\n    tag_63:\n      pop\n      swap1\n      jump\t// out\n        /* \"#utility.yul\":7:146   */\n    tag_65:\n      0x00\n        /* \"#utility.yul\":91:97   */\n      dup2\n        /* \"#utility.yul\":78:98   */\n      calldataload\n        /* \"#utility.yul\":69:98   */\n      swap1\n      pop\n        /* \"#utility.yul\":107:140   */\n      tag_67\n        /* \"#utility.yul\":134:139   */\n      dup2\n        /* \"#utility.yul\":107:140   */\n      tag_68\n      jump\t// in\n    tag_67:\n        /* \"#utility.yul\":59:146   */\n      swap3\n      swap2\n      pop\n      pop\n      jump\t// out\n        /* \"#utility.yul\":152:414   */\n    tag_25:\n      0x00\n        /* \"#utility.yul\":260:262   */\n      0x20\n        /* \"#utility.yul\":248:257   */\n      dup3\n        /* \"#utility.yul\":239:246   */\n      dup5\n        /* \"#utility.yul\":235:258   */\n      sub\n        /* \"#utility.yul\":231:263   */\n      slt\n        /* \"#utility.yul\":228:230   */\n      iszero\n      tag_70\n      jumpi\n        /* \"#utility.yul\":276:277   */\n      0x00\n        /* \"#utility.yul\":273:274   */\n      dup1\n        /* \"#utility.yul\":266:278   */\n      revert\n        /* \"#utility.yul\":228:230   */\n    tag_70:\n        /* \"#utility.yul\":319:320   */\n      0x00\n        /* \"#utility.yul\":344:397   */\n      tag_71\n        /* \"#utility.yul\":389:396   */\n      dup5\n        /* \"#utility.yul\":380:386   */\n      dup3\n        /* \"#utility.yul\":369:378   */\n      dup6\n        /* \"#utility.yul\":365:387   */\n      add\n        /* \"#utility.yul\":344:397   */\n      tag_65\n      jump\t// in\n    tag_71:\n        /* \"#utility.yul\":334:397   */\n      swap2\n      pop\n        /* \"#utility.yul\":290:407   */\n      pop\n        /* \"#utility.yul\":218:414   */\n      swap3\n      swap2\n      pop\n      pop\n      jump\t// out\n        /* \"#utility.yul\":420:599   */\n    tag_72:\n      0x00\n        /* \"#utility.yul\":510:556   */\n      tag_74\n        /* \"#utility.yul\":552:555   */\n      dup4\n        /* \"#utility.yul\":544:550   */\n      dup4\n        /* \"#utility.yul\":510:556   */\n      tag_75\n      jump\t// in\n    tag_74:\n        /* \"#utility.yul\":588:592   */\n      0x20\n        /* \"#utility.yul\":583:586   */\n      dup4\n        /* \"#utility.yul\":579:593   */\n      add\n        /* \"#utility.yul\":565:593   */\n      swap1\n      pop\n        /* \"#utility.yul\":500:599   */\n      swap3\n      swap2\n      pop\n      pop\n      jump\t// out\n        /* \"#utility.yul\":605:800   */\n    tag_76:\n      0x00\n        /* \"#utility.yul\":703:757   */\n      tag_78\n        /* \"#utility.yul\":753:756   */\n      dup4\n        /* \"#utility.yul\":745:751   */\n      dup4\n        /* \"#utility.yul\":703:757   */\n      tag_79\n      jump\t// in\n    tag_78:\n        /* \"#utility.yul\":789:793   */\n      0x20\n        /* \"#utility.yul\":784:787   */\n      dup4\n        /* \"#utility.yul\":780:794   */\n      add\n        /* \"#utility.yul\":766:794   */\n      swap1\n      pop\n        /* \"#utility.yul\":693:800   */\n      swap3\n      swap2\n      pop\n      pop\n      jump\t// out\n        /* \"#utility.yul\":806:914   */\n    tag_75:\n        /* \"#utility.yul\":883:907   */\n      tag_81\n        /* \"#utility.yul\":901:906   */\n      dup2\n        /* \"#utility.yul\":883:907   */\n      tag_82\n      jump\t// in\n    tag_81:\n        /* \"#utility.yul\":878:881   */\n      dup3\n        /* \"#utility.yul\":871:908   */\n      mstore\n        /* \"#utility.yul\":861:914   */\n      pop\n      pop\n      jump\t// out\n        /* \"#utility.yul\":920:1038   */\n    tag_83:\n        /* \"#utility.yul\":1007:1031   */\n      tag_85\n        /* \"#utility.yul\":1025:1030   */\n      dup2\n        /* \"#utility.yul\":1007:1031   */\n      tag_82\n      jump\t// in\n    tag_85:\n        /* \"#utility.yul\":1002:1005   */\n      dup3\n        /* \"#utility.yul\":995:1032   */\n      mstore\n        /* \"#utility.yul\":985:1038   */\n      pop\n      pop\n      jump\t// out\n        /* \"#utility.yul\":1044:1160   */\n    tag_79:\n        /* \"#utility.yul\":1129:1153   */\n      tag_87\n        /* \"#utility.yul\":1147:1152   */\n      dup2\n        /* \"#utility.yul\":1129:1153   */\n      tag_82\n      jump\t// in\n    tag_87:\n        /* \"#utility.yul\":1124:1127   */\n      dup3\n        /* \"#utility.yul\":1117:1154   */\n      mstore\n        /* \"#utility.yul\":1107:1160   */\n      pop\n      pop\n      jump\t// out\n        /* \"#utility.yul\":1196:1928   */\n    tag_88:\n      0x00\n        /* \"#utility.yul\":1344:1398   */\n      tag_90\n        /* \"#utility.yul\":1392:1397   */\n      dup3\n        /* \"#utility.yul\":1344:1398   */\n      tag_91\n      jump\t// in\n    tag_90:\n        /* \"#utility.yul\":1414:1500   */\n      tag_92\n        /* \"#utility.yul\":1493:1499   */\n      dup2\n        /* \"#utility.yul\":1488:1491   */\n      dup6\n        /* \"#utility.yul\":1414:1500   */\n      tag_93\n      jump\t// in\n    tag_92:\n        /* \"#utility.yul\":1407:1500   */\n      swap4\n      pop\n        /* \"#utility.yul\":1524:1580   */\n      tag_94\n        /* \"#utility.yul\":1574:1579   */\n      dup4\n        /* \"#utility.yul\":1524:1580   */\n      tag_95\n      jump\t// in\n    tag_94:\n        /* \"#utility.yul\":1603:1610   */\n      dup1\n        /* \"#utility.yul\":1634:1635   */\n      0x00\n        /* \"#utility.yul\":1619:1903   */\n    tag_96:\n        /* \"#utility.yul\":1644:1650   */\n      dup4\n        /* \"#utility.yul\":1641:1642   */\n      dup2\n        /* \"#utility.yul\":1638:1651   */\n      lt\n        /* \"#utility.yul\":1619:1903   */\n      iszero\n      tag_98\n      jumpi\n        /* \"#utility.yul\":1720:1726   */\n      dup2\n        /* \"#utility.yul\":1714:1727   */\n      mload\n        /* \"#utility.yul\":1747:1810   */\n      tag_99\n        /* \"#utility.yul\":1806:1809   */\n      dup9\n        /* \"#utility.yul\":1791:1804   */\n      dup3\n        /* \"#utility.yul\":1747:1810   */\n      tag_72\n      jump\t// in\n    tag_99:\n        /* \"#utility.yul\":1740:1810   */\n      swap8\n      pop\n        /* \"#utility.yul\":1833:1893   */\n      tag_100\n        /* \"#utility.yul\":1886:1892   */\n      dup4\n        /* \"#utility.yul\":1833:1893   */\n      tag_101\n      jump\t// in\n    tag_100:\n        /* \"#utility.yul\":1823:1893   */\n      swap3\n      pop\n        /* \"#utility.yul\":1679:1903   */\n      pop\n        /* \"#utility.yul\":1666:1667   */\n      0x01\n        /* \"#utility.yul\":1663:1664   */\n      dup2\n        /* \"#utility.yul\":1659:1668   */\n      add\n        /* \"#utility.yul\":1654:1668   */\n      swap1\n      pop\n        /* \"#utility.yul\":1619:1903   */\n      jump(tag_96)\n    tag_98:\n        /* \"#utility.yul\":1623:1637   */\n      pop\n        /* \"#utility.yul\":1919:1922   */\n      dup6\n        /* \"#utility.yul\":1912:1922   */\n      swap4\n      pop\n        /* \"#utility.yul\":1320:1928   */\n      pop\n      pop\n      pop\n      swap3\n      swap2\n      pop\n      pop\n      jump\t// out\n        /* \"#utility.yul\":1964:2759   */\n    tag_102:\n      0x00\n        /* \"#utility.yul\":2127:2178   */\n      tag_104\n        /* \"#utility.yul\":2172:2177   */\n      dup3\n        /* \"#utility.yul\":2127:2178   */\n      tag_105\n      jump\t// in\n    tag_104:\n        /* \"#utility.yul\":2194:2298   */\n      tag_106\n        /* \"#utility.yul\":2291:2297   */\n      dup2\n        /* \"#utility.yul\":2286:2289   */\n      dup6\n        /* \"#utility.yul\":2194:2298   */\n      tag_107\n      jump\t// in\n    tag_106:\n        /* \"#utility.yul\":2187:2298   */\n      swap4\n      pop\n        /* \"#utility.yul\":2322:2375   */\n      tag_108\n        /* \"#utility.yul\":2369:2374   */\n      dup4\n        /* \"#utility.yul\":2322:2375   */\n      tag_109\n      jump\t// in\n    tag_108:\n        /* \"#utility.yul\":2398:2405   */\n      dup1\n        /* \"#utility.yul\":2429:2430   */\n      0x00\n        /* \"#utility.yul\":2414:2734   */\n    tag_110:\n        /* \"#utility.yul\":2439:2445   */\n      dup4\n        /* \"#utility.yul\":2436:2437   */\n      dup2\n        /* \"#utility.yul\":2433:2446   */\n      lt\n        /* \"#utility.yul\":2414:2734   */\n      iszero\n      tag_112\n      jumpi\n        /* \"#utility.yul\":2509:2553   */\n      tag_113\n        /* \"#utility.yul\":2546:2552   */\n      dup3\n        /* \"#utility.yul\":2509:2553   */\n      tag_114\n      jump\t// in\n    tag_113:\n        /* \"#utility.yul\":2573:2644   */\n      tag_115\n        /* \"#utility.yul\":2640:2643   */\n      dup9\n        /* \"#utility.yul\":2625:2638   */\n      dup3\n        /* \"#utility.yul\":2573:2644   */\n      tag_76\n      jump\t// in\n    tag_115:\n        /* \"#utility.yul\":2566:2644   */\n      swap8\n      pop\n        /* \"#utility.yul\":2667:2724   */\n      tag_116\n        /* \"#utility.yul\":2717:2723   */\n      dup4\n        /* \"#utility.yul\":2667:2724   */\n      tag_117\n      jump\t// in\n    tag_116:\n        /* \"#utility.yul\":2657:2724   */\n      swap3\n      pop\n        /* \"#utility.yul\":2474:2734   */\n      pop\n        /* \"#utility.yul\":2461:2462   */\n      0x01\n        /* \"#utility.yul\":2458:2459   */\n      dup2\n        /* \"#utility.yul\":2454:2463   */\n      add\n        /* \"#utility.yul\":2449:2463   */\n      swap1\n      pop\n        /* \"#utility.yul\":2414:2734   */\n      jump(tag_110)\n    tag_112:\n        /* \"#utility.yul\":2418:2432   */\n      pop\n        /* \"#utility.yul\":2750:2753   */\n      dup6\n        /* \"#utility.yul\":2743:2753   */\n      swap4\n      pop\n        /* \"#utility.yul\":2103:2759   */\n      pop\n      pop\n      pop\n      swap3\n      swap2\n      pop\n      pop\n      jump\t// out\n        /* \"#utility.yul\":2765:3129   */\n    tag_118:\n      0x00\n        /* \"#utility.yul\":2881:2920   */\n      tag_120\n        /* \"#utility.yul\":2914:2919   */\n      dup3\n        /* \"#utility.yul\":2881:2920   */\n      tag_121\n      jump\t// in\n    tag_120:\n        /* \"#utility.yul\":2936:3007   */\n      tag_122\n        /* \"#utility.yul\":3000:3006   */\n      dup2\n        /* \"#utility.yul\":2995:2998   */\n      dup6\n        /* \"#utility.yul\":2936:3007   */\n      tag_123\n      jump\t// in\n    tag_122:\n        /* \"#utility.yul\":2929:3007   */\n      swap4\n      pop\n        /* \"#utility.yul\":3016:3068   */\n      tag_124\n        /* \"#utility.yul\":3061:3067   */\n      dup2\n        /* \"#utility.yul\":3056:3059   */\n      dup6\n        /* \"#utility.yul\":3049:3053   */\n      0x20\n        /* \"#utility.yul\":3042:3047   */\n      dup7\n        /* \"#utility.yul\":3038:3054   */\n      add\n        /* \"#utility.yul\":3016:3068   */\n      tag_125\n      jump\t// in\n    tag_124:\n        /* \"#utility.yul\":3093:3122   */\n      tag_126\n        /* \"#utility.yul\":3115:3121   */\n      dup2\n        /* \"#utility.yul\":3093:3122   */\n      tag_127\n      jump\t// in\n    tag_126:\n        /* \"#utility.yul\":3088:3091   */\n      dup5\n        /* \"#utility.yul\":3084:3123   */\n      add\n        /* \"#utility.yul\":3077:3123   */\n      swap2\n      pop\n        /* \"#utility.yul\":2857:3129   */\n      pop\n      swap3\n      swap2\n      pop\n      pop\n      jump\t// out\n        /* \"#utility.yul\":3135:3292   */\n    tag_128:\n        /* \"#utility.yul\":3240:3285   */\n      tag_130\n        /* \"#utility.yul\":3260:3284   */\n      tag_131\n        /* \"#utility.yul\":3278:3283   */\n      dup3\n        /* \"#utility.yul\":3260:3284   */\n      tag_132\n      jump\t// in\n    tag_131:\n        /* \"#utility.yul\":3240:3285   */\n      tag_133\n      jump\t// in\n    tag_130:\n        /* \"#utility.yul\":3235:3238   */\n      dup3\n        /* \"#utility.yul\":3228:3286   */\n      mstore\n        /* \"#utility.yul\":3218:3292   */\n      pop\n      pop\n      jump\t// out\n        /* \"#utility.yul\":3298:3909   */\n    tag_56:\n      0x00\n        /* \"#utility.yul\":3528:3603   */\n      tag_135\n        /* \"#utility.yul\":3599:3602   */\n      dup3\n        /* \"#utility.yul\":3590:3596   */\n      dup7\n        /* \"#utility.yul\":3528:3603   */\n      tag_128\n      jump\t// in\n    tag_135:\n        /* \"#utility.yul\":3628:3630   */\n      0x20\n        /* \"#utility.yul\":3623:3626   */\n      dup3\n        /* \"#utility.yul\":3619:3631   */\n      add\n        /* \"#utility.yul\":3612:3631   */\n      swap2\n      pop\n        /* \"#utility.yul\":3641:3716   */\n      tag_136\n        /* \"#utility.yul\":3712:3715   */\n      dup3\n        /* \"#utility.yul\":3703:3709   */\n      dup6\n        /* \"#utility.yul\":3641:3716   */\n      tag_128\n      jump\t// in\n    tag_136:\n        /* \"#utility.yul\":3741:3743   */\n      0x20\n        /* \"#utility.yul\":3736:3739   */\n      dup3\n        /* \"#utility.yul\":3732:3744   */\n      add\n        /* \"#utility.yul\":3725:3744   */\n      swap2\n      pop\n        /* \"#utility.yul\":3761:3883   */\n      tag_137\n        /* \"#utility.yul\":3879:3882   */\n      dup3\n        /* \"#utility.yul\":3870:3876   */\n      dup5\n        /* \"#utility.yul\":3761:3883   */\n      tag_102\n      jump\t// in\n    tag_137:\n        /* \"#utility.yul\":3754:3883   */\n      swap2\n      pop\n        /* \"#utility.yul\":3900:3903   */\n      dup2\n        /* \"#utility.yul\":3893:3903   */\n      swap1\n      pop\n        /* \"#utility.yul\":3517:3909   */\n      swap5\n      swap4\n      pop\n      pop\n      pop\n      pop\n      jump\t// out\n        /* \"#utility.yul\":3915:4137   */\n    tag_11:\n      0x00\n        /* \"#utility.yul\":4046:4048   */\n      0x20\n        /* \"#utility.yul\":4035:4044   */\n      dup3\n        /* \"#utility.yul\":4031:4049   */\n      add\n        /* \"#utility.yul\":4023:4049   */\n      swap1\n      pop\n        /* \"#utility.yul\":4059:4130   */\n      tag_139\n        /* \"#utility.yul\":4127:4128   */\n      0x00\n        /* \"#utility.yul\":4116:4125   */\n      dup4\n        /* \"#utility.yul\":4112:4129   */\n      add\n        /* \"#utility.yul\":4103:4109   */\n      dup5\n        /* \"#utility.yul\":4059:4130   */\n      tag_83\n      jump\t// in\n    tag_139:\n        /* \"#utility.yul\":4013:4137   */\n      swap3\n      swap2\n      pop\n      pop\n      jump\t// out\n        /* \"#utility.yul\":4143:4516   */\n    tag_19:\n      0x00\n        /* \"#utility.yul\":4324:4326   */\n      0x20\n        /* \"#utility.yul\":4313:4322   */\n      dup3\n        /* \"#utility.yul\":4309:4327   */\n      add\n        /* \"#utility.yul\":4301:4327   */\n      swap1\n      pop\n        /* \"#utility.yul\":4373:4382   */\n      dup2\n        /* \"#utility.yul\":4367:4371   */\n      dup2\n        /* \"#utility.yul\":4363:4383   */\n      sub\n        /* \"#utility.yul\":4359:4360   */\n      0x00\n        /* \"#utility.yul\":4348:4357   */\n      dup4\n        /* \"#utility.yul\":4344:4361   */\n      add\n        /* \"#utility.yul\":4337:4384   */\n      mstore\n        /* \"#utility.yul\":4401:4509   */\n      tag_141\n        /* \"#utility.yul\":4504:4508   */\n      dup2\n        /* \"#utility.yul\":4495:4501   */\n      dup5\n        /* \"#utility.yul\":4401:4509   */\n      tag_88\n      jump\t// in\n    tag_141:\n        /* \"#utility.yul\":4393:4509   */\n      swap1\n      pop\n        /* \"#utility.yul\":4291:4516   */\n      swap3\n      swap2\n      pop\n      pop\n      jump\t// out\n        /* \"#utility.yul\":4522:4835   */\n    tag_31:\n      0x00\n        /* \"#utility.yul\":4673:4675   */\n      0x20\n        /* \"#utility.yul\":4662:4671   */\n      dup3\n        /* \"#utility.yul\":4658:4676   */\n      add\n        /* \"#utility.yul\":4650:4676   */\n      swap1\n      pop\n        /* \"#utility.yul\":4722:4731   */\n      dup2\n        /* \"#utility.yul\":4716:4720   */\n      dup2\n        /* \"#utility.yul\":4712:4732   */\n      sub\n        /* \"#utility.yul\":4708:4709   */\n      0x00\n        /* \"#utility.yul\":4697:4706   */\n      dup4\n        /* \"#utility.yul\":4693:4710   */\n      add\n        /* \"#utility.yul\":4686:4733   */\n      mstore\n        /* \"#utility.yul\":4750:4828   */\n      tag_143\n        /* \"#utility.yul\":4823:4827   */\n      dup2\n        /* \"#utility.yul\":4814:4820   */\n      dup5\n        /* \"#utility.yul\":4750:4828   */\n      tag_118\n      jump\t// in\n    tag_143:\n        /* \"#utility.yul\":4742:4828   */\n      swap1\n      pop\n        /* \"#utility.yul\":4640:4835   */\n      swap3\n      swap2\n      pop\n      pop\n      jump\t// out\n        /* \"#utility.yul\":4841:4973   */\n    tag_95:\n      0x00\n        /* \"#utility.yul\":4931:4934   */\n      dup2\n        /* \"#utility.yul\":4923:4934   */\n      swap1\n      pop\n        /* \"#utility.yul\":4961:4965   */\n      0x20\n        /* \"#utility.yul\":4956:4959   */\n      dup3\n        /* \"#utility.yul\":4952:4966   */\n      add\n        /* \"#utility.yul\":4944:4966   */\n      swap1\n      pop\n        /* \"#utility.yul\":4913:4973   */\n      swap2\n      swap1\n      pop\n      jump\t// out\n        /* \"#utility.yul\":4979:5135   */\n    tag_109:\n      0x00\n        /* \"#utility.yul\":5066:5069   */\n      dup2\n        /* \"#utility.yul\":5058:5069   */\n      swap1\n      pop\n        /* \"#utility.yul\":5089:5092   */\n      dup2\n        /* \"#utility.yul\":5086:5087   */\n      0x00\n        /* \"#utility.yul\":5079:5093   */\n      mstore\n        /* \"#utility.yul\":5123:5127   */\n      0x20\n        /* \"#utility.yul\":5120:5121   */\n      0x00\n        /* \"#utility.yul\":5110:5128   */\n      keccak256\n        /* \"#utility.yul\":5102:5128   */\n      swap1\n      pop\n        /* \"#utility.yul\":5048:5135   */\n      swap2\n      swap1\n      pop\n      jump\t// out\n        /* \"#utility.yul\":5141:5255   */\n    tag_91:\n      0x00\n        /* \"#utility.yul\":5242:5247   */\n      dup2\n        /* \"#utility.yul\":5236:5248   */\n      mload\n        /* \"#utility.yul\":5226:5248   */\n      swap1\n      pop\n        /* \"#utility.yul\":5215:5255   */\n      swap2\n      swap1\n      pop\n      jump\t// out\n        /* \"#utility.yul\":5261:5372   */\n    tag_105:\n      0x00\n        /* \"#utility.yul\":5359:5364   */\n      dup2\n        /* \"#utility.yul\":5353:5365   */\n      sload\n        /* \"#utility.yul\":5343:5365   */\n      swap1\n      pop\n        /* \"#utility.yul\":5332:5372   */\n      swap2\n      swap1\n      pop\n      jump\t// out\n        /* \"#utility.yul\":5378:5477   */\n    tag_121:\n      0x00\n        /* \"#utility.yul\":5464:5469   */\n      dup2\n        /* \"#utility.yul\":5458:5470   */\n      mload\n        /* \"#utility.yul\":5448:5470   */\n      swap1\n      pop\n        /* \"#utility.yul\":5437:5477   */\n      swap2\n      swap1\n      pop\n      jump\t// out\n        /* \"#utility.yul\":5483:5596   */\n    tag_101:\n      0x00\n        /* \"#utility.yul\":5585:5589   */\n      0x20\n        /* \"#utility.yul\":5580:5583   */\n      dup3\n        /* \"#utility.yul\":5576:5590   */\n      add\n        /* \"#utility.yul\":5568:5590   */\n      swap1\n      pop\n        /* \"#utility.yul\":5558:5596   */\n      swap2\n      swap1\n      pop\n      jump\t// out\n        /* \"#utility.yul\":5602:5712   */\n    tag_117:\n      0x00\n        /* \"#utility.yul\":5701:5705   */\n      0x01\n        /* \"#utility.yul\":5696:5699   */\n      dup3\n        /* \"#utility.yul\":5692:5706   */\n      add\n        /* \"#utility.yul\":5684:5706   */\n      swap1\n      pop\n        /* \"#utility.yul\":5674:5712   */\n      swap2\n      swap1\n      pop\n      jump\t// out\n        /* \"#utility.yul\":5718:5902   */\n    tag_93:\n      0x00\n        /* \"#utility.yul\":5851:5857   */\n      dup3\n        /* \"#utility.yul\":5846:5849   */\n      dup3\n        /* \"#utility.yul\":5839:5858   */\n      mstore\n        /* \"#utility.yul\":5891:5895   */\n      0x20\n        /* \"#utility.yul\":5886:5889   */\n      dup3\n        /* \"#utility.yul\":5882:5896   */\n      add\n        /* \"#utility.yul\":5867:5896   */\n      swap1\n      pop\n        /* \"#utility.yul\":5829:5902   */\n      swap3\n      swap2\n      pop\n      pop\n      jump\t// out\n        /* \"#utility.yul\":5908:6071   */\n    tag_107:\n      0x00\n        /* \"#utility.yul\":6062:6065   */\n      dup2\n        /* \"#utility.yul\":6047:6065   */\n      swap1\n      pop\n        /* \"#utility.yul\":6037:6071   */\n      swap3\n      swap2\n      pop\n      pop\n      jump\t// out\n        /* \"#utility.yul\":6077:6246   */\n    tag_123:\n      0x00\n        /* \"#utility.yul\":6195:6201   */\n      dup3\n        /* \"#utility.yul\":6190:6193   */\n      dup3\n        /* \"#utility.yul\":6183:6202   */\n      mstore\n        /* \"#utility.yul\":6235:6239   */\n      0x20\n        /* \"#utility.yul\":6230:6233   */\n      dup3\n        /* \"#utility.yul\":6226:6240   */\n      add\n        /* \"#utility.yul\":6211:6240   */\n      swap1\n      pop\n        /* \"#utility.yul\":6173:6246   */\n      swap3\n      swap2\n      pop\n      pop\n      jump\t// out\n        /* \"#utility.yul\":6252:6391   */\n    tag_154:\n      0x00\n        /* \"#utility.yul\":6342:6384   */\n      0xffffffffffffffffffffffffffffffffffffffff\n        /* \"#utility.yul\":6335:6340   */\n      dup3\n        /* \"#utility.yul\":6331:6385   */\n      and\n        /* \"#utility.yul\":6320:6385   */\n      swap1\n      pop\n        /* \"#utility.yul\":6310:6391   */\n      swap2\n      swap1\n      pop\n      jump\t// out\n        /* \"#utility.yul\":6397:6493   */\n    tag_82:\n      0x00\n        /* \"#utility.yul\":6463:6487   */\n      tag_157\n        /* \"#utility.yul\":6481:6486   */\n      dup3\n        /* \"#utility.yul\":6463:6487   */\n      tag_158\n      jump\t// in\n    tag_157:\n        /* \"#utility.yul\":6452:6487   */\n      swap1\n      pop\n        /* \"#utility.yul\":6442:6493   */\n      swap2\n      swap1\n      pop\n      jump\t// out\n        /* \"#utility.yul\":6499:6625   */\n    tag_158:\n      0x00\n        /* \"#utility.yul\":6576:6618   */\n      0xffffffffffffffffffffffffffffffffffffffff\n        /* \"#utility.yul\":6569:6574   */\n      dup3\n        /* \"#utility.yul\":6565:6619   */\n      and\n        /* \"#utility.yul\":6554:6619   */\n      swap1\n      pop\n        /* \"#utility.yul\":6544:6625   */\n      swap2\n      swap1\n      pop\n      jump\t// out\n        /* \"#utility.yul\":6631:6708   */\n    tag_132:\n      0x00\n        /* \"#utility.yul\":6697:6702   */\n      dup2\n        /* \"#utility.yul\":6686:6702   */\n      swap1\n      pop\n        /* \"#utility.yul\":6676:6708   */\n      swap2\n      swap1\n      pop\n      jump\t// out\n        /* \"#utility.yul\":6714:7021   */\n    tag_125:\n        /* \"#utility.yul\":6782:6783   */\n      0x00\n        /* \"#utility.yul\":6792:6905   */\n    tag_162:\n        /* \"#utility.yul\":6806:6812   */\n      dup4\n        /* \"#utility.yul\":6803:6804   */\n      dup2\n        /* \"#utility.yul\":6800:6813   */\n      lt\n        /* \"#utility.yul\":6792:6905   */\n      iszero\n      tag_164\n      jumpi\n        /* \"#utility.yul\":6891:6892   */\n      dup1\n        /* \"#utility.yul\":6886:6889   */\n      dup3\n        /* \"#utility.yul\":6882:6893   */\n      add\n        /* \"#utility.yul\":6876:6894   */\n      mload\n        /* \"#utility.yul\":6872:6873   */\n      dup2\n        /* \"#utility.yul\":6867:6870   */\n      dup5\n        /* \"#utility.yul\":6863:6874   */\n      add\n        /* \"#utility.yul\":6856:6895   */\n      mstore\n        /* \"#utility.yul\":6828:6830   */\n      0x20\n        /* \"#utility.yul\":6825:6826   */\n      dup2\n        /* \"#utility.yul\":6821:6831   */\n      add\n        /* \"#utility.yul\":6816:6831   */\n      swap1\n      pop\n        /* \"#utility.yul\":6792:6905   */\n      jump(tag_162)\n    tag_164:\n        /* \"#utility.yul\":6923:6929   */\n      dup4\n        /* \"#utility.yul\":6920:6921   */\n      dup2\n        /* \"#utility.yul\":6917:6930   */\n      gt\n        /* \"#utility.yul\":6914:6916   */\n      iszero\n      tag_165\n      jumpi\n        /* \"#utility.yul\":7003:7004   */\n      0x00\n        /* \"#utility.yul\":6994:7000   */\n      dup5\n        /* \"#utility.yul\":6989:6992   */\n      dup5\n        /* \"#utility.yul\":6985:7001   */\n      add\n        /* \"#utility.yul\":6978:7005   */\n      mstore\n        /* \"#utility.yul\":6914:6916   */\n    tag_165:\n        /* \"#utility.yul\":6763:7021   */\n      pop\n      pop\n      pop\n      pop\n      jump\t// out\n        /* \"#utility.yul\":7027:7193   */\n    tag_166:\n      0x00\n        /* \"#utility.yul\":7121:7187   */\n      tag_168\n        /* \"#utility.yul\":7152:7186   */\n      tag_169\n        /* \"#utility.yul\":7175:7185   */\n      dup4\n        /* \"#utility.yul\":7152:7186   */\n      tag_170\n      jump\t// in\n    tag_169:\n        /* \"#utility.yul\":7121:7187   */\n      tag_154\n      jump\t// in\n    tag_168:\n        /* \"#utility.yul\":7112:7187   */\n      swap1\n      pop\n        /* \"#utility.yul\":7102:7193   */\n      swap2\n      swap1\n      pop\n      jump\t// out\n        /* \"#utility.yul\":7199:7278   */\n    tag_133:\n      0x00\n        /* \"#utility.yul\":7267:7272   */\n      dup2\n        /* \"#utility.yul\":7256:7272   */\n      swap1\n      pop\n        /* \"#utility.yul\":7246:7278   */\n      swap2\n      swap1\n      pop\n      jump\t// out\n        /* \"#utility.yul\":7284:7460   */\n    tag_36:\n      0x00\n        /* \"#utility.yul\":7333:7353   */\n      tag_173\n        /* \"#utility.yul\":7351:7352   */\n      dup3\n        /* \"#utility.yul\":7333:7353   */\n      tag_132\n      jump\t// in\n    tag_173:\n        /* \"#utility.yul\":7328:7353   */\n      swap2\n      pop\n        /* \"#utility.yul\":7367:7387   */\n      tag_174\n        /* \"#utility.yul\":7385:7386   */\n      dup4\n        /* \"#utility.yul\":7367:7387   */\n      tag_132\n      jump\t// in\n    tag_174:\n        /* \"#utility.yul\":7362:7387   */\n      swap3\n      pop\n        /* \"#utility.yul\":7406:7407   */\n      dup3\n        /* \"#utility.yul\":7396:7398   */\n      tag_175\n      jumpi\n        /* \"#utility.yul\":7411:7429   */\n      tag_176\n      tag_177\n      jump\t// in\n    tag_176:\n        /* \"#utility.yul\":7396:7398   */\n    tag_175:\n        /* \"#utility.yul\":7452:7453   */\n      dup3\n        /* \"#utility.yul\":7449:7450   */\n      dup3\n        /* \"#utility.yul\":7445:7454   */\n      mod\n        /* \"#utility.yul\":7440:7454   */\n      swap1\n      pop\n        /* \"#utility.yul\":7318:7460   */\n      swap3\n      swap2\n      pop\n      pop\n      jump\t// out\n        /* \"#utility.yul\":7466:7646   */\n    tag_177:\n        /* \"#utility.yul\":7514:7591   */\n      0x4e487b7100000000000000000000000000000000000000000000000000000000\n        /* \"#utility.yul\":7511:7512   */\n      0x00\n        /* \"#utility.yul\":7504:7592   */\n      mstore\n        /* \"#utility.yul\":7611:7615   */\n      0x12\n        /* \"#utility.yul\":7608:7609   */\n      0x04\n        /* \"#utility.yul\":7601:7616   */\n      mstore\n        /* \"#utility.yul\":7635:7639   */\n      0x24\n        /* \"#utility.yul\":7632:7633   */\n      0x00\n        /* \"#utility.yul\":7625:7640   */\n      revert\n        /* \"#utility.yul\":7652:7796   */\n    tag_114:\n      0x00\n        /* \"#utility.yul\":7732:7789   */\n      tag_180\n        /* \"#utility.yul\":7783:7787   */\n      dup3\n        /* \"#utility.yul\":7777:7788   */\n      sload\n        /* \"#utility.yul\":7732:7789   */\n      tag_166\n      jump\t// in\n    tag_180:\n        /* \"#utility.yul\":7723:7789   */\n      swap1\n      pop\n        /* \"#utility.yul\":7713:7796   */\n      swap2\n      swap1\n      pop\n      jump\t// out\n        /* \"#utility.yul\":7802:7904   */\n    tag_127:\n      0x00\n        /* \"#utility.yul\":7894:7896   */\n      0x1f\n        /* \"#utility.yul\":7890:7897   */\n      not\n        /* \"#utility.yul\":7885:7887   */\n      0x1f\n        /* \"#utility.yul\":7878:7883   */\n      dup4\n        /* \"#utility.yul\":7874:7888   */\n      add\n        /* \"#utility.yul\":7870:7898   */\n      and\n        /* \"#utility.yul\":7860:7898   */\n      swap1\n      pop\n        /* \"#utility.yul\":7850:7904   */\n      swap2\n      swap1\n      pop\n      jump\t// out\n        /* \"#utility.yul\":7910:8012   */\n    tag_170:\n      0x00\n        /* \"#utility.yul\":7999:8004   */\n      dup2\n        /* \"#utility.yul\":7996:7997   */\n      0x00\n        /* \"#utility.yul\":7992:8005   */\n      shr\n        /* \"#utility.yul\":7971:8005   */\n      swap1\n      pop\n        /* \"#utility.yul\":7961:8012   */\n      swap2\n      swap1\n      pop\n      jump\t// out\n        /* \"#utility.yul\":8018:8140   */\n    tag_68:\n        /* \"#utility.yul\":8091:8115   */\n      tag_184\n        /* \"#utility.yul\":8109:8114   */\n      dup2\n        /* \"#utility.yul\":8091:8115   */\n      tag_132\n      jump\t// in\n    tag_184:\n        /* \"#utility.yul\":8084:8089   */\n      dup2\n        /* \"#utility.yul\":8081:8116   */\n      eq\n        /* \"#utility.yul\":8071:8073   */\n      tag_185\n      jumpi\n        /* \"#utility.yul\":8130:8131   */\n      0x00\n        /* \"#utility.yul\":8127:8128   */\n      dup1\n        /* \"#utility.yul\":8120:8132   */\n      revert\n        /* \"#utility.yul\":8071:8073   */\n    tag_185:\n        /* \"#utility.yul\":8061:8140   */\n      pop\n      jump\t// out\n\n    auxdata: 0xa264697066735822122082a9e36981197ee223d28fbcdc4f48fe6d2d5e09a2464e4a51f69c40c9fe79f164736f6c63430008030033\n}\n",
    "bytecode": {
      "linkReferences": {},
      "object": "608060405234801561001057600080fd5b50336000806101000a81548173ffffffffffffffffffffffffffffffffffffffff021916908373ffffffffffffffffffffffffffffffffffffffff160217905550610a33806100606000396000f3fe60806040526004361061004a5760003560e01c8063481c6a751461004f5780635d495aea1461007a5780638b5b9ccc14610091578063e97dcb62146100bc578063f71d96cb146100c6575b600080fd5b34801561005b57600080fd5b50610064610103565b60405161007191906107b6565b60405180910390f35b34801561008657600080fd5b5061008f610127565b005b34801561009d57600080fd5b506100a661033e565b6040516100b391906107d1565b60405180910390f35b6100c46103cc565b005b3480156100d257600080fd5b506100ed60048036038101906100e891906105e4565b6104b3565b6040516100fa91906107b6565b60405180910390f35b60008054906101000a900473ffffffffffffffffffffffffffffffffffffffff1681565b60008054906101000a900473ffffffffffffffffffffffffffffffffffffffff1673ffffffffffffffffffffffffffffffffffffffff163373ffffffffffffffffffffffffffffffffffffffff16146040518060400160405280601381526020017f556e617574686f72697a65642041636365737300000000000000000000000000815250906101ed576040517f08c379a00000000000000000000000000000000000000000000000000000000081526004016101e491906107f3565b60405180910390fd5b5060006001805490506101fe6104f2565b6102089190610955565b905060018181548110610244577f4e487b7100000000000000000000000000000000000000000000000000000000600052603260045260246000fd5b9060005260206000200160009054906101000a900473ffffffffffffffffffffffffffffffffffffffff1673ffffffffffffffffffffffffffffffffffffffff166108fc479081150290604051600060405180830381858888f193505050501580156102b4573d6000803e3d6000fd5b50600067ffffffffffffffff8111156102f6577f4e487b7100000000000000000000000000000000000000000000000000000000600052604160045260246000fd5b6040519080825280602002602001820160405280156103245781602001602082028036833780820191505090505b506001908051906020019061033a929190610528565b5050565b606060018054806020026020016040519081016040528092919081815260200182805480156103c257602002820191906000526020600020905b8160009054906101000a900473ffffffffffffffffffffffffffffffffffffffff1673ffffffffffffffffffffffffffffffffffffffff1681526020019060010190808311610378575b5050505050905090565b662386f26fc1000034116040518060400160405280601181526020017f496e73756666696369656e742046756e640000000000000000000000000000008152509061044d576040517f08c379a000000000000000000000000000000000000000000000000000000000815260040161044491906107f3565b60405180910390fd5b506001339080600181540180825580915050600190039060005260206000200160009091909190916101000a81548173ffffffffffffffffffffffffffffffffffffffff021916908373ffffffffffffffffffffffffffffffffffffffff160217905550565b600181815481106104c357600080fd5b906000526020600020016000915054906101000a900473ffffffffffffffffffffffffffffffffffffffff1681565b60004442600160405160200161050a9392919061077d565b6040516020818303038152906040528051906020012060001c905090565b8280548282559060005260206000209081019282156105a1579160200282015b828111156105a05782518260006101000a81548173ffffffffffffffffffffffffffffffffffffffff021916908373ffffffffffffffffffffffffffffffffffffffff16021790555091602001919060010190610548565b5b5090506105ae91906105b2565b5090565b5b808211156105cb5760008160009055506001016105b3565b5090565b6000813590506105de816109e6565b92915050565b6000602082840312156105f657600080fd5b6000610604848285016105cf565b91505092915050565b6000610619838361063d565b60208301905092915050565b6000610631838361065b565b60208301905092915050565b610646816108c2565b82525050565b610655816108c2565b82525050565b610664816108c2565b82525050565b60006106758261083a565b61067f8185610875565b935061068a83610815565b8060005b838110156106bb5781516106a2888261060d565b97506106ad8361085b565b92505060018101905061068e565b5085935050505092915050565b60006106d382610845565b6106dd8185610886565b93506106e883610825565b8060005b83811015610720576106fd826109b5565b6107078882610625565b975061071283610868565b9250506001810190506106ec565b5085935050505092915050565b600061073882610850565b6107428185610891565b93506107528185602086016108fe565b61075b816109c8565b840191505092915050565b610777610772826108f4565b61094b565b82525050565b60006107898286610766565b6020820191506107998285610766565b6020820191506107a982846106c8565b9150819050949350505050565b60006020820190506107cb600083018461064c565b92915050565b600060208201905081810360008301526107eb818461066a565b905092915050565b6000602082019050818103600083015261080d818461072d565b905092915050565b6000819050602082019050919050565b60008190508160005260206000209050919050565b600081519050919050565b600081549050919050565b600081519050919050565b6000602082019050919050565b6000600182019050919050565b600082825260208201905092915050565b600081905092915050565b600082825260208201905092915050565b600073ffffffffffffffffffffffffffffffffffffffff82169050919050565b60006108cd826108d4565b9050919050565b600073ffffffffffffffffffffffffffffffffffffffff82169050919050565b6000819050919050565b60005b8381101561091c578082015181840152602081019050610901565b8381111561092b576000848401525b50505050565b600061094461093f836109d9565b6108a2565b9050919050565b6000819050919050565b6000610960826108f4565b915061096b836108f4565b92508261097b5761097a610986565b5b828206905092915050565b7f4e487b7100000000000000000000000000000000000000000000000000000000600052601260045260246000fd5b60006109c18254610931565b9050919050565b6000601f19601f8301169050919050565b60008160001c9050919050565b6109ef816108f4565b81146109fa57600080fd5b5056fea264697066735822122082a9e36981197ee223d28fbcdc4f48fe6d2d5e09a2464e4a51f69c40c9fe79f164736f6c63430008030033",
      "opcodes": "PUSH1 0x80 PUSH1 0x40 MSTORE CALLVALUE DUP1 ISZERO PUSH2 0x10 JUMPI PUSH1 0x0 DUP1 REVERT JUMPDEST POP CALLER PUSH1 0x0 DUP1 PUSH2 0x100 EXP DUP2 SLOAD DUP2 PUSH20 0xFFFFFFFFFFFFFFFFFFFFFFFFFFFFFFFFFFFFFFFF MUL NOT AND SWAP1 DUP4 PUSH20 0xFFFFFFFFFFFFFFFFFFFFFFFFFFFFFFFFFFFFFFFF AND MUL OR SWAP1 SSTORE POP PUSH2 0xA33 DUP1 PUSH2 0x60 PUSH1 0x0 CODECOPY PUSH1 0x0 RETURN INVALID PUSH1 0x80 PUSH1 0x40 MSTORE PUSH1 0x4 CALLDATASIZE LT PUSH2 0x4A JUMPI PUSH1 0x0 CALLDATALOAD PUSH1 0xE0 SHR DUP1 PUSH4 0x481C6A75 EQ PUSH2 0x4F JUMPI DUP1 PUSH4 0x5D495AEA EQ PUSH2 0x7A JUMPI DUP1 PUSH4 0x8B5B9CCC EQ PUSH2 0x91 JUMPI DUP1 PUSH4 0xE97DCB62 EQ PUSH2 0xBC JUMPI DUP1 PUSH4 0xF71D96CB EQ PUSH2 0xC6 JUMPI JUMPDEST PUSH1 0x0 DUP1 REVERT JUMPDEST CALLVALUE DUP1 ISZERO PUSH2 0x5B JUMPI PUSH1 0x0 DUP1 REVERT JUMPDEST POP PUSH2 0x64 PUSH2 0x103 JUMP JUMPDEST PUSH1 0x40 MLOAD PUSH2 0x71 SWAP2 SWAP1 PUSH2 0x7B6 JUMP JUMPDEST PUSH1 0x40 MLOAD DUP1 SWAP2 SUB SWAP1 RETURN JUMPDEST CALLVALUE DUP1 ISZERO PUSH2 0x86 JUMPI PUSH1 0x0 DUP1 REVERT JUMPDEST POP PUSH2 0x8F PUSH2 0x127 JUMP JUMPDEST STOP JUMPDEST CALLVALUE DUP1 ISZERO PUSH2 0x9D JUMPI PUSH1 0x0 DUP1 REVERT JUMPDEST POP PUSH2 0xA6 PUSH2 0x33E JUMP JUMPDEST PUSH1 0x40 MLOAD PUSH2 0xB3 SWAP2 SWAP1 PUSH2 0x7D1 JUMP JUMPDEST PUSH1 0x40 MLOAD DUP1 SWAP2 SUB SWAP1 RETURN JUMPDEST PUSH2 0xC4 PUSH2 0x3CC JUMP JUMPDEST STOP JUMPDEST CALLVALUE DUP1 ISZERO PUSH2 0xD2 JUMPI PUSH1 0x0 DUP1 REVERT JUMPDEST POP PUSH2 0xED PUSH1 0x4 DUP1 CALLDATASIZE SUB DUP2 ADD SWAP1 PUSH2 0xE8 SWAP2 SWAP1 PUSH2 0x5E4 JUMP JUMPDEST PUSH2 0x4B3 JUMP JUMPDEST PUSH1 0x40 MLOAD PUSH2 0xFA SWAP2 SWAP1 PUSH2 0x7B6 JUMP JUMPDEST PUSH1 0x40 MLOAD DUP1 SWAP2 SUB SWAP1 RETURN JUMPDEST PUSH1 0x0 DUP1 SLOAD SWAP1 PUSH2 0x100 EXP SWAP1 DIV PUSH20 0xFFFFFFFFFFFFFFFFFFFFFFFFFFFFFFFFFFFFFFFF AND DUP2 JUMP JUMPDEST PUSH1 0x0 DUP1 SLOAD SWAP1 PUSH2 0x100 EXP SWAP1 DIV PUSH20 0xFFFFFFFFFFFFFFFFFFFFFFFFFFFFFFFFFFFFFFFF AND PUSH20 0xFFFFFFFFFFFFFFFFFFFFFFFFFFFFFFFFFFFFFFFF AND CALLER PUSH20 0xFFFFFFFFFFFFFFFFFFFFFFFFFFFFFFFFFFFFFFFF AND EQ PUSH1 0x40 MLOAD DUP1 PUSH1 0x40 ADD PUSH1 0x40 MSTORE DUP1 PUSH1 0x13 DUP2 MSTORE PUSH1 0x20 ADD PUSH32 0x556E617574686F72697A65642041636365737300000000000000000000000000 DUP2 MSTORE POP SWAP1 PUSH2 0x1ED JUMPI PUSH1 0x40 MLOAD PUSH32 0x8C379A000000000000000000000000000000000000000000000000000000000 DUP2 MSTORE PUSH1 0x4 ADD PUSH2 0x1E4 SWAP2 SWAP1 PUSH2 0x7F3 JUMP JUMPDEST PUSH1 0x40 MLOAD DUP1 SWAP2 SUB SWAP1 REVERT JUMPDEST POP PUSH1 0x0 PUSH1 0x1 DUP1 SLOAD SWAP1 POP PUSH2 0x1FE PUSH2 0x4F2 JUMP JUMPDEST PUSH2 0x208 SWAP2 SWAP1 PUSH2 0x955 JUMP JUMPDEST SWAP1 POP PUSH1 0x1 DUP2 DUP2 SLOAD DUP2 LT PUSH2 0x244 JUMPI PUSH32 0x4E487B7100000000000000000000000000000000000000000000000000000000 PUSH1 0x0 MSTORE PUSH1 0x32 PUSH1 0x4 MSTORE PUSH1 0x24 PUSH1 0x0 REVERT JUMPDEST SWAP1 PUSH1 0x0 MSTORE PUSH1 0x20 PUSH1 0x0 KECCAK256 ADD PUSH1 0x0 SWAP1 SLOAD SWAP1 PUSH2 0x100 EXP SWAP1 DIV PUSH20 0xFFFFFFFFFFFFFFFFFFFFFFFFFFFFFFFFFFFFFFFF AND PUSH20 0xFFFFFFFFFFFFFFFFFFFFFFFFFFFFFFFFFFFFFFFF AND PUSH2 0x8FC SELFBALANCE SWAP1 DUP2 ISZERO MUL SWAP1 PUSH1 0x40 MLOAD PUSH1 0x0 PUSH1 0x40 MLOAD DUP1 DUP4 SUB DUP2 DUP6 DUP9 DUP9 CALL SWAP4 POP POP POP POP ISZERO DUP1 ISZERO PUSH2 0x2B4 JUMPI RETURNDATASIZE PUSH1 0x0 DUP1 RETURNDATACOPY RETURNDATASIZE PUSH1 0x0 REVERT JUMPDEST POP PUSH1 0x0 PUSH8 0xFFFFFFFFFFFFFFFF DUP2 GT ISZERO PUSH2 0x2F6 JUMPI PUSH32 0x4E487B7100000000000000000000000000000000000000000000000000000000 PUSH1 0x0 MSTORE PUSH1 0x41 PUSH1 0x4 MSTORE PUSH1 0x24 PUSH1 0x0 REVERT JUMPDEST PUSH1 0x40 MLOAD SWAP1 DUP1 DUP3 MSTORE DUP1 PUSH1 0x20 MUL PUSH1 0x20 ADD DUP3 ADD PUSH1 0x40 MSTORE DUP1 ISZERO PUSH2 0x324 JUMPI DUP2 PUSH1 0x20 ADD PUSH1 0x20 DUP3 MUL DUP1 CALLDATASIZE DUP4 CALLDATACOPY DUP1 DUP3 ADD SWAP2 POP POP SWAP1 POP JUMPDEST POP PUSH1 0x1 SWAP1 DUP1 MLOAD SWAP1 PUSH1 0x20 ADD SWAP1 PUSH2 0x33A SWAP3 SWAP2 SWAP1 PUSH2 0x528 JUMP JUMPDEST POP POP JUMP JUMPDEST PUSH1 0x60 PUSH1 0x1 DUP1 SLOAD DUP1 PUSH1 0x20 MUL PUSH1 0x20 ADD PUSH1 0x40 MLOAD SWAP1 DUP2 ADD PUSH1 0x40 MSTORE DUP1 SWAP3 SWAP2 SWAP1 DUP2 DUP2 MSTORE PUSH1 0x20 ADD DUP3 DUP1 SLOAD DUP1 ISZERO PUSH2 0x3C2 JUMPI PUSH1 0x20 MUL DUP3 ADD SWAP2 SWAP1 PUSH1 0x0 MSTORE PUSH1 0x20 PUSH1 0x0 KECCAK256 SWAP1 JUMPDEST DUP2 PUSH1 0x0 SWAP1 SLOAD SWAP1 PUSH2 0x100 EXP SWAP1 DIV PUSH20 0xFFFFFFFFFFFFFFFFFFFFFFFFFFFFFFFFFFFFFFFF AND PUSH20 0xFFFFFFFFFFFFFFFFFFFFFFFFFFFFFFFFFFFFFFFF AND DUP2 MSTORE PUSH1 0x20 ADD SWAP1 PUSH1 0x1 ADD SWAP1 DUP1 DUP4 GT PUSH2 0x378 JUMPI JUMPDEST POP POP POP POP POP SWAP1 POP SWAP1 JUMP JUMPDEST PUSH7 0x2386F26FC10000 CALLVALUE GT PUSH1 0x40 MLOAD DUP1 PUSH1 0x40 ADD PUSH1 0x40 MSTORE DUP1 PUSH1 0x11 DUP2 MSTORE PUSH1 0x20 ADD PUSH32 0x496E73756666696369656E742046756E64000000000000000000000000000000 DUP2 MSTORE POP SWAP1 PUSH2 0x44D JUMPI PUSH1 0x40 MLOAD PUSH32 0x8C379A000000000000000000000000000000000000000000000000000000000 DUP2 MSTORE PUSH1 0x4 ADD PUSH2 0x444 SWAP2 SWAP1 PUSH2 0x7F3 JUMP JUMPDEST PUSH1 0x40 MLOAD DUP1 SWAP2 SUB SWAP1 REVERT JUMPDEST POP PUSH1 0x1 CALLER SWAP1 DUP1 PUSH1 0x1 DUP2 SLOAD ADD DUP1 DUP3 SSTORE DUP1 SWAP2 POP POP PUSH1 0x1 SWAP1 SUB SWAP1 PUSH1 0x0 MSTORE PUSH1 0x20 PUSH1 0x0 KECCAK256 ADD PUSH1 0x0 SWAP1 SWAP2 SWAP1 SWAP2 SWAP1 SWAP2 PUSH2 0x100 EXP DUP2 SLOAD DUP2 PUSH20 0xFFFFFFFFFFFFFFFFFFFFFFFFFFFFFFFFFFFFFFFF MUL NOT AND SWAP1 DUP4 PUSH20 0xFFFFFFFFFFFFFFFFFFFFFFFFFFFFFFFFFFFFFFFF AND MUL OR SWAP1 SSTORE POP JUMP JUMPDEST PUSH1 0x1 DUP2 DUP2 SLOAD DUP2 LT PUSH2 0x4C3 JUMPI PUSH1 0x0 DUP1 REVERT JUMPDEST SWAP1 PUSH1 0x0 MSTORE PUSH1 0x20 PUSH1 0x0 KECCAK256 ADD PUSH1 0x0 SWAP2 POP SLOAD SWAP1 PUSH2 0x100 EXP SWAP1 DIV PUSH20 0xFFFFFFFFFFFFFFFFFFFFFFFFFFFFFFFFFFFFFFFF AND DUP2 JUMP JUMPDEST PUSH1 0x0 DIFFICULTY TIMESTAMP PUSH1 0x1 PUSH1 0x40 MLOAD PUSH1 0x20 ADD PUSH2 0x50A SWAP4 SWAP3 SWAP2 SWAP1 PUSH2 0x77D JUMP JUMPDEST PUSH1 0x40 MLOAD PUSH1 0x20 DUP2 DUP4 SUB SUB DUP2 MSTORE SWAP1 PUSH1 0x40 MSTORE DUP1 MLOAD SWAP1 PUSH1 0x20 ADD KECCAK256 PUSH1 0x0 SHR SWAP1 POP SWAP1 JUMP JUMPDEST DUP3 DUP1 SLOAD DUP3 DUP3 SSTORE SWAP1 PUSH1 0x0 MSTORE PUSH1 0x20 PUSH1 0x0 KECCAK256 SWAP1 DUP2 ADD SWAP3 DUP3 ISZERO PUSH2 0x5A1 JUMPI SWAP2 PUSH1 0x20 MUL DUP3 ADD JUMPDEST DUP3 DUP2 GT ISZERO PUSH2 0x5A0 JUMPI DUP3 MLOAD DUP3 PUSH1 0x0 PUSH2 0x100 EXP DUP2 SLOAD DUP2 PUSH20 0xFFFFFFFFFFFFFFFFFFFFFFFFFFFFFFFFFFFFFFFF MUL NOT AND SWAP1 DUP4 PUSH20 0xFFFFFFFFFFFFFFFFFFFFFFFFFFFFFFFFFFFFFFFF AND MUL OR SWAP1 SSTORE POP SWAP2 PUSH1 0x20 ADD SWAP2 SWAP1 PUSH1 0x1 ADD SWAP1 PUSH2 0x548 JUMP JUMPDEST JUMPDEST POP SWAP1 POP PUSH2 0x5AE SWAP2 SWAP1 PUSH2 0x5B2 JUMP JUMPDEST POP SWAP1 JUMP JUMPDEST JUMPDEST DUP1 DUP3 GT ISZERO PUSH2 0x5CB JUMPI PUSH1 0x0 DUP2 PUSH1 0x0 SWAP1 SSTORE POP PUSH1 0x1 ADD PUSH2 0x5B3 JUMP JUMPDEST POP SWAP1 JUMP JUMPDEST PUSH1 0x0 DUP2 CALLDATALOAD SWAP1 POP PUSH2 0x5DE DUP2 PUSH2 0x9E6 JUMP JUMPDEST SWAP3 SWAP2 POP POP JUMP JUMPDEST PUSH1 0x0 PUSH1 0x20 DUP3 DUP5 SUB SLT ISZERO PUSH2 0x5F6 JUMPI PUSH1 0x0 DUP1 REVERT JUMPDEST PUSH1 0x0 PUSH2 0x604 DUP5 DUP3 DUP6 ADD PUSH2 0x5CF JUMP JUMPDEST SWAP2 POP POP SWAP3 SWAP2 POP POP JUMP JUMPDEST PUSH1 0x0 PUSH2 0x619 DUP4 DUP4 PUSH2 0x63D JUMP JUMPDEST PUSH1 0x20 DUP4 ADD SWAP1 POP SWAP3 SWAP2 POP POP JUMP JUMPDEST PUSH1 0x0 PUSH2 0x631 DUP4 DUP4 PUSH2 0x65B JUMP JUMPDEST PUSH1 0x20 DUP4 ADD SWAP1 POP SWAP3 SWAP2 POP POP JUMP JUMPDEST PUSH2 0x646 DUP2 PUSH2 0x8C2 JUMP JUMPDEST DUP3 MSTORE POP POP JUMP JUMPDEST PUSH2 0x655 DUP2 PUSH2 0x8C2 JUMP JUMPDEST DUP3 MSTORE POP POP JUMP JUMPDEST PUSH2 0x664 DUP2 PUSH2 0x8C2 JUMP JUMPDEST DUP3 MSTORE POP POP JUMP JUMPDEST PUSH1 0x0 PUSH2 0x675 DUP3 PUSH2 0x83A JUMP JUMPDEST PUSH2 0x67F DUP2 DUP6 PUSH2 0x875 JUMP JUMPDEST SWAP4 POP PUSH2 0x68A DUP4 PUSH2 0x815 JUMP JUMPDEST DUP1 PUSH1 0x0 JUMPDEST DUP4 DUP2 LT ISZERO PUSH2 0x6BB JUMPI DUP2 MLOAD PUSH2 0x6A2 DUP9 DUP3 PUSH2 0x60D JUMP JUMPDEST SWAP8 POP PUSH2 0x6AD DUP4 PUSH2 0x85B JUMP JUMPDEST SWAP3 POP POP PUSH1 0x1 DUP2 ADD SWAP1 POP PUSH2 0x68E JUMP JUMPDEST POP DUP6 SWAP4 POP POP POP POP SWAP3 SWAP2 POP POP JUMP JUMPDEST PUSH1 0x0 PUSH2 0x6D3 DUP3 PUSH2 0x845 JUMP JUMPDEST PUSH2 0x6DD DUP2 DUP6 PUSH2 0x886 JUMP JUMPDEST SWAP4 POP PUSH2 0x6E8 DUP4 PUSH2 0x825 JUMP JUMPDEST DUP1 PUSH1 0x0 JUMPDEST DUP4 DUP2 LT ISZERO PUSH2 0x720 JUMPI PUSH2 0x6FD DUP3 PUSH2 0x9B5 JUMP JUMPDEST PUSH2 0x707 DUP9 DUP3 PUSH2 0x625 JUMP JUMPDEST SWAP8 POP PUSH2 0x712 DUP4 PUSH2 0x868 JUMP JUMPDEST SWAP3 POP POP PUSH1 0x1 DUP2 ADD SWAP1 POP PUSH2 0x6EC JUMP JUMPDEST POP DUP6 SWAP4 POP POP POP POP SWAP3 SWAP2 POP POP JUMP JUMPDEST PUSH1 0x0 PUSH2 0x738 DUP3 PUSH2 0x850 JUMP JUMPDEST PUSH2 0x742 DUP2 DUP6 PUSH2 0x891 JUMP JUMPDEST SWAP4 POP PUSH2 0x752 DUP2 DUP6 PUSH1 0x20 DUP7 ADD PUSH2 0x8FE JUMP JUMPDEST PUSH2 0x75B DUP2 PUSH2 0x9C8 JUMP JUMPDEST DUP5 ADD SWAP2 POP POP SWAP3 SWAP2 POP POP JUMP JUMPDEST PUSH2 0x777 PUSH2 0x772 DUP3 PUSH2 0x8F4 JUMP JUMPDEST PUSH2 0x94B JUMP JUMPDEST DUP3 MSTORE POP POP JUMP JUMPDEST PUSH1 0x0 PUSH2 0x789 DUP3 DUP7 PUSH2 0x766 JUMP JUMPDEST PUSH1 0x20 DUP3 ADD SWAP2 POP PUSH2 0x799 DUP3 DUP6 PUSH2 0x766 JUMP JUMPDEST PUSH1 0x20 DUP3 ADD SWAP2 POP PUSH2 0x7A9 DUP3 DUP5 PUSH2 0x6C8 JUMP JUMPDEST SWAP2 POP DUP2 SWAP1 POP SWAP5 SWAP4 POP POP POP POP JUMP JUMPDEST PUSH1 0x0 PUSH1 0x20 DUP3 ADD SWAP1 POP PUSH2 0x7CB PUSH1 0x0 DUP4 ADD DUP5 PUSH2 0x64C JUMP JUMPDEST SWAP3 SWAP2 POP POP JUMP JUMPDEST PUSH1 0x0 PUSH1 0x20 DUP3 ADD SWAP1 POP DUP2 DUP2 SUB PUSH1 0x0 DUP4 ADD MSTORE PUSH2 0x7EB DUP2 DUP5 PUSH2 0x66A JUMP JUMPDEST SWAP1 POP SWAP3 SWAP2 POP POP JUMP JUMPDEST PUSH1 0x0 PUSH1 0x20 DUP3 ADD SWAP1 POP DUP2 DUP2 SUB PUSH1 0x0 DUP4 ADD MSTORE PUSH2 0x80D DUP2 DUP5 PUSH2 0x72D JUMP JUMPDEST SWAP1 POP SWAP3 SWAP2 POP POP JUMP JUMPDEST PUSH1 0x0 DUP2 SWAP1 POP PUSH1 0x20 DUP3 ADD SWAP1 POP SWAP2 SWAP1 POP JUMP JUMPDEST PUSH1 0x0 DUP2 SWAP1 POP DUP2 PUSH1 0x0 MSTORE PUSH1 0x20 PUSH1 0x0 KECCAK256 SWAP1 POP SWAP2 SWAP1 POP JUMP JUMPDEST PUSH1 0x0 DUP2 MLOAD SWAP1 POP SWAP2 SWAP1 POP JUMP JUMPDEST PUSH1 0x0 DUP2 SLOAD SWAP1 POP SWAP2 SWAP1 POP JUMP JUMPDEST PUSH1 0x0 DUP2 MLOAD SWAP1 POP SWAP2 SWAP1 POP JUMP JUMPDEST PUSH1 0x0 PUSH1 0x20 DUP3 ADD SWAP1 POP SWAP2 SWAP1 POP JUMP JUMPDEST PUSH1 0x0 PUSH1 0x1 DUP3 ADD SWAP1 POP SWAP2 SWAP1 POP JUMP JUMPDEST PUSH1 0x0 DUP3 DUP3 MSTORE PUSH1 0x20 DUP3 ADD SWAP1 POP SWAP3 SWAP2 POP POP JUMP JUMPDEST PUSH1 0x0 DUP2 SWAP1 POP SWAP3 SWAP2 POP POP JUMP JUMPDEST PUSH1 0x0 DUP3 DUP3 MSTORE PUSH1 0x20 DUP3 ADD SWAP1 POP SWAP3 SWAP2 POP POP JUMP JUMPDEST PUSH1 0x0 PUSH20 0xFFFFFFFFFFFFFFFFFFFFFFFFFFFFFFFFFFFFFFFF DUP3 AND SWAP1 POP SWAP2 SWAP1 POP JUMP JUMPDEST PUSH1 0x0 PUSH2 0x8CD DUP3 PUSH2 0x8D4 JUMP JUMPDEST SWAP1 POP SWAP2 SWAP1 POP JUMP JUMPDEST PUSH1 0x0 PUSH20 0xFFFFFFFFFFFFFFFFFFFFFFFFFFFFFFFFFFFFFFFF DUP3 AND SWAP1 POP SWAP2 SWAP1 POP JUMP JUMPDEST PUSH1 0x0 DUP2 SWAP1 POP SWAP2 SWAP1 POP JUMP JUMPDEST PUSH1 0x0 JUMPDEST DUP4 DUP2 LT ISZERO PUSH2 0x91C JUMPI DUP1 DUP3 ADD MLOAD DUP2 DUP5 ADD MSTORE PUSH1 0x20 DUP2 ADD SWAP1 POP PUSH2 0x901 JUMP JUMPDEST DUP4 DUP2 GT ISZERO PUSH2 0x92B JUMPI PUSH1 0x0 DUP5 DUP5 ADD MSTORE JUMPDEST POP POP POP POP JUMP JUMPDEST PUSH1 0x0 PUSH2 0x944 PUSH2 0x93F DUP4 PUSH2 0x9D9 JUMP JUMPDEST PUSH2 0x8A2 JUMP JUMPDEST SWAP1 POP SWAP2 SWAP1 POP JUMP JUMPDEST PUSH1 0x0 DUP2 SWAP1 POP SWAP2 SWAP1 POP JUMP JUMPDEST PUSH1 0x0 PUSH2 0x960 DUP3 PUSH2 0x8F4 JUMP JUMPDEST SWAP2 POP PUSH2 0x96B DUP4 PUSH2 0x8F4 JUMP JUMPDEST SWAP3 POP DUP3 PUSH2 0x97B JUMPI PUSH2 0x97A PUSH2 0x986 JUMP JUMPDEST JUMPDEST DUP3 DUP3 MOD SWAP1 POP SWAP3 SWAP2 POP POP JUMP JUMPDEST PUSH32 0x4E487B7100000000000000000000000000000000000000000000000000000000 PUSH1 0x0 MSTORE PUSH1 0x12 PUSH1 0x4 MSTORE PUSH1 0x24 PUSH1 0x0 REVERT JUMPDEST PUSH1 0x0 PUSH2 0x9C1 DUP3 SLOAD PUSH2 0x931 JUMP JUMPDEST SWAP1 POP SWAP2 SWAP1 POP JUMP JUMPDEST PUSH1 0x0 PUSH1 0x1F NOT PUSH1 0x1F DUP4 ADD AND SWAP1 POP SWAP2 SWAP1 POP JUMP JUMPDEST PUSH1 0x0 DUP2 PUSH1 0x0 SHR SWAP1 POP SWAP2 SWAP1 POP JUMP JUMPDEST PUSH2 0x9EF DUP2 PUSH2 0x8F4 JUMP JUMPDEST DUP2 EQ PUSH2 0x9FA JUMPI PUSH1 0x0 DUP1 REVERT JUMPDEST POP JUMP INVALID LOG2 PUSH5 0x6970667358 0x22 SLT KECCAK256 DUP3 0xA9 0xE3 PUSH10 0x81197EE223D28FBCDC4F 0x48 INVALID PUSH14 0x2D5E09A2464E4A51F69C40C9FE79 CALL PUSH5 0x736F6C6343 STOP ADDMOD SUB STOP CALLER "
    },
    "gasEstimates": {
      "creation": {
        "codeDepositCost": "522200",
        "executionCost": "21422",
        "totalCost": "543622"
      },
      "external": {
        "enter()": "infinite",
        "getPlayers()": "infinite",
        "manager()": "1189",
        "pickWinner()": "infinite",
        "players(uint256)": "2422"
      },
      "internal": {
        "random()": "infinite"
      }
    },
    "methodIdentifiers": {
      "enter()": "e97dcb62",
      "getPlayers()": "8b5b9ccc",
      "manager()": "481c6a75",
      "pickWinner()": "5d495aea",
      "players(uint256)": "f71d96cb"
    }
  },
  "storageLayout": {
    "storage": [
      {
        "astId": 9,
        "contract": "Lottery.sol:Lottery",
        "label": "manager",
        "offset": 0,
        "slot": "0",
        "type": "t_address"
      },
      {
        "astId": 12,
        "contract": "Lottery.sol:Lottery",
        "label": "players",
        "offset": 0,
        "slot": "1",
        "type": "t_array(t_address)dyn_storage"
      }
    ],
    "types": {
      "t_address": {
        "encoding": "inplace",
        "label": "address",
        "numberOfBytes": "20"
      },
      "t_array(t_address)dyn_storage": {
        "base": "t_address",
        "encoding": "dynamic_array",
        "label": "address[]",
        "numberOfBytes": "32"
      }
    }
  },
  "userdoc": {
    "kind": "user",
    "methods": {},
    "version": 1
  }
}